:020000040800F2
:100000008049002099010008270C0008FD0900081C
:10001000250C0008210700088916000800000000D0
:1000200000000000000000000000000001010008C6
:10003000090800080000000045010008C11100087F
:10004000B3010008B3010008B3010008B3010008C0
:10005000B3010008B3010008B3010008B3010008B0
:10006000B3010008B3010008B3010008B3010008A0
:10007000B3010008B3010008B3010008B301000890
:10008000B3010008B3010008B3010008B301000880
:10009000B3010008B3010008B301000879080008A3
:1000A000B3010008B3010008B3010008B301000860
:1000B000B3010008B3010008B3010008B301000850
:1000C000B3010008B3010008B3010008B301000840
:1000D000B301000835150008B3010008B30100089A
:1000E000B3010008B3010008B3010008DFF80CD029
:1000F00000F076FA004800478D1F00088049002074
:10010000224B19680868B0E8F00F80F30988BFF344
:100110006F8F4FF0000080F311884EF00D0E704786
:100120000000000006480068006880F3088862B696
:1001300061B6BFF34F8FBFF36F8F00DF00BF00BF0B
:1001400008ED00E0EFF30980BFF36F8F0F4B1A68E3
:1001500020E9F00F106008B54FF0BF0080F3118860
:10016000BFF34F8FBFF36F8F02F05EFA4FF00000C6
:1001700080F31188BDE8084019680868B0E8F00FFE
:1001800080F30988BFF36F8F704700BF54000020D1
:10019000EFF3058070470000064880470648004797
:1001A000FEE7FEE7FEE7FEE7FEE7FEE7FEE7FEE727
:1001B000FEE7FEE7ED110008ED000008D2B201E015
:1001C00000F8012B491EFBD270470022F6E710B55C
:1001D00013460A4604461946FFF7F0FF204610BDB5
:1001E00030B50B46014600202022012409E021FA07
:1001F00002F59D4205D303FA02F5491B04FA02F504
:100200002844151EA2F10102F1DC30BD2DE9F05F9A
:100210000546002092469B46884606468146402475
:100220001BE0284641464746224600F0FAF953466D
:100230005A46C01A914110D311461846224600F082
:10024000E1F92D1A67EB01084F46224601200021F3
:1002500000F0D8F917EB00094E41201EA4F101046B
:10026000DFDC484631462A464346BDE8F09F2DE98B
:10027000FE4F804681EA0300C00F0C46009021F03B
:10028000004123F00045B8EB0200A94105D24046E9
:10029000214690461C460B46024623F00040104380
:1002A00047D0270DC7F30A00C3F30A510290401A42
:1002B000019040286BDAC3F3130040F4801B0098D0
:1002C000924620B10023D2EB030A63EB0B0B01989B
:1002D0005946C0F14002504600F094F906460D46DA
:1002E00050465946019A00F0ACF910EB0800614104
:1002F000002487EA115284EAE7731A4340D0009A37
:1003000062B3019A012A4FEA075215DC001B61EB28
:1003100002014FF0004202EA0752CDE90042001C00
:1003200041F5801132462B4600F0ACF903B0BDE830
:10033000F08F40462146F9E7001B61EB0201001CEB
:1003400041F5801300185B412018A2F5001747EB18
:10035000030140EAD570B6196D4111E06D084FEA0E
:10036000360645EAC0754FEA0752001B61EB0201F1
:10037000001C41F5801149084FEA30000019514135
:1003800032462B4603B0BDE8F04F00F06CB9009840
:10039000012240000023D0EB020263EBE0730098DF
:1003A00021464FEAE074B8EB000061EB0401E9E795
:1003B00083F000435BE781F0004158E72DE9FE4FF1
:1003C00081EA030404F0004421F0004100944FF05E
:1003D000000B23F0004350EA01045ED052EA03040C
:1003E0005BD0C3F30A54C1F30A552C44A4F2F3348E
:1003F0000194A0FB0254C1F3130141F48011C3F333
:10040000130343F4801301FB024400FB034E840AF0
:10041000970A44EA815447EA8357A4FB0768029588
:100420008D0A05FB07854FEA932C04FB0C54270526
:10043000029D4FEA065847EA1637B5EB08056EEB02
:10044000070C870E920E47EA811742EA8312A7FB38
:100450000201B6EB0B0164EB00042B0D43EA0C33F5
:100460005E1844EB1C50DA465146E7FB0201C5F327
:1004700013044FEA0B3343EA14534FEA0432019C4E
:1004800043EA0603A4F10C040294009CCDE900B4F5
:1004900000F0F8F803B0BDE8F08F00200146F9E75E
:1004A0002DE9F04D81EA030404F0004B21F00045F2
:1004B00014464FF0000A23F0004150EA050220D014
:1004C00054EA01021DD0C5F30A570246C5F31303CF
:1004D000C1F31300C1F30A5640F4801543F48013AE
:1004E000A7EB0608101BD64608F2FD3873EB050093
:1004F00002D308F1010801E092185B41B8F1000F46
:1005000003DA00200146BDE8F08D00204FF4801191
:10051000064684460EE0171B73EB050705D3121B36
:1005200063EB050306434CEA010C49084FEA30002F
:1005300092185B4150EA0107EDD152EA030012D054
:1005400082EA040083EA0501084305D0101BAB4191
:1005500006D20122002306E000224FF0004302E011
:100560006FF0010253101AEB06004CEB085110EB30
:100570000A0041EB0B01BDE8F04D00F074B8C1F387
:100580000A52C1F3130140F2FF3341F480119A4241
:1005900002DA00200146704740F233439A42A2F249
:1005A000334202DC524200F03CB800F02BB80000AD
:1005B00030B5041E71F1000404DB4FF000444042EA
:1005C00064EB0101141E73F1000405DB1C464FF0BF
:1005D0000043524263EB0403994208BF904230BD8E
:1005E000064C074D06E0E06840F0010394E8070080
:1005F00098471034AC42F6D3FFF77CFD542900082D
:1006000074290008202A04DB203A00FA02F10020B5
:1006100070479140C2F1200320FA03F31943904040
:100620007047202A04DB203A21FA02F000217047AB
:1006300021FA02F3D040C2F120029140084319464A
:100640007047202A06DBCB17203A41FA02F043EA32
:10065000E07306E041FA02F3D040C2F1200291407B
:1006600008431946704710B5141E73F1000408DAE8
:10067000401C41F1000192185B411A4301D120F066
:10068000010010BD2DE9F04D92469B4611B1B1FA23
:1006900081F202E0B0FA80F220329046FFF7B2FF1A
:1006A00004460F4640EA0A0041EA0B0153465A4607
:1006B000084313D0114653EA010019D0C8F1400293
:1006C0005046FFF7AEFF05460E4650465946424695
:1006D000FFF798FF084305D0012004E02046394683
:1006E000BDE8F08D0020054346EAE0762C43374311
:1006F0000A986305E40AA0EB08000022FD0A44EA18
:1007000047540A3002D500200146E9E701051019D7
:100710006941DDE9084500196941BDE8F04DA2E7EE
:10072000FEE7000070B52B480178012918D100269A
:10073000294D067029A0296800F0A8FF28882E609E
:10074000C0F30720010900F00F0561F3070465F30A
:100750000F2427A000F09AFF294628A000F096FF5A
:10076000E0B24FF4FA610B2808D00D280FD0092809
:1007700016D00E281DD0082824D025E0C4F3072069
:10078000012821D1BDE87040462001F09CBCC4F393
:100790000720042818D1BDE87040462001F072BC43
:1007A000C4F3072001280FD1BDE87040462001F0B6
:1007B00041BCC4F30720012806D1BDE870404620A3
:1007C00001F04CBCC4F30720BDE87040002001F0EC
:1007D0006DBC00004800002044000020BAECCDE2CF
:1007E000BDD3CAD5C2EB2025302E38580D0A0000E3
:1007F0006275665B305D3A25640D0A006275665B62
:10080000315D3A25640D0A00704700B502464FF489
:100810007A7302E0184600F003F8521EFAD200BDC7
:1008200000EBC000C1004FF0E02041610021816178
:10083000052101610169C903FCD5042101617047EB
:100840002DE9F0410A490B4F00240D5C01F10A0625
:1008500025FA04F000F0010236F81410384600F0D2
:10086000C8F8641CE4B2082CF2D3BDE8F0810000A3
:10087000280000200008014070470000014908607E
:100880007047000014040140064900200860091D5B
:100890000860091D0860091D0860024902481431FA
:1008A0000860704700040140FFFF0F0030B51A4A8E
:1008B0008379016853B313688B431360111D0B6870
:1008C0000468A3430B60017911440B680468234357
:1008D0000B60114B083319680468A14319601C1D93
:1008E00021680568A94321604179102905D0114488
:1008F0000A68006802430A6030BD19680268114343
:100900001960216800680143216030BD00791044FE
:1009100002688A43026030BD0004014010B58A07B6
:1009200021F003040649120F21440F238C689340E1
:100930009C438C608B68904003438B6010BD00002B
:1009400000000140F0B5CC78002204F00F03E4066B
:1009500001D58C7823430C784FF00F0C14F0FF0F67
:100960004FF0010E1BD005680E880EFA02F42640E7
:10097000A64210D196000CFA06F725EA070703FAFB
:1009800006F5CE783D43282E02D0482E02D002E054
:10099000446100E00461521C082AE5D305600A881E
:1009A000FF2A1CD94468002202F108060EFA06F557
:1009B0000E882E40AE420ED196000CFA06F7BC43CC
:1009C00003FA06F7CE783C43282E00D14561CE7855
:1009D000482E00D10561521C082AE5D34460F0BDC1
:1009E0000246002092680A4200D00120704701614F
:1009F00070470AB10161704741617047FEE700002E
:100A000070B500244FF48075084E06E0641CE4B213
:100A10001420FFF705FFFA2C05D229463046FFF7D0
:100A2000DFFF0128F2D0204670BD00000008014021
:100A30007FB50121052000F027FA4FF48074ADF84E
:100A40000C4048218DF80F1003A91248FFF77AFFD8
:100A500008210020FFF762FF2046FFF70FFF002567
:100A60008DF804500C2000948DF8050001248DF8B9
:100A700006406846FFF71AFF17208DF808008DF82A
:100A800009508DF80A408DF80B4002A800F0CCF810
:100A90007FBD00000008014008B50121042000F0DE
:100AA000F3F948208DF803004FF4C050ADF8000072
:100AB00003208DF8020069460148FFF743FF08BD97
:100AC000000801402DE9F0470026DFF868901A4F32
:100AD00034464FF4807841464846FFF781FF0128AD
:100AE00025D1FFF78DFFFA281AD2A0F1C8013229CB
:100AF00001D201260BE0A0F13C011E2901D2012503
:100B000003E00A38282800D20025012E0DD13868CC
:100B1000202C05EB4000386007D3084901200870FD
:100B20004046BDE8F047FFF7A9BE641CE4B2FFF7FA
:100B3000F9FDD0E7000801404400002048000020F3
:100B400008B50121082000F09FF948208DF8030026
:100B50004FF44050ADF8000003208DF802006946C4
:100B60000148FFF7EFFE08BD000C014070B50C4EC8
:100B70004FF40045002429463046FFF731FF60B9A5
:100B80001420FFF742FE29463046FFF729FF0028D0
:100B9000F9D01420FFF739FE0124204670BD000073
:100BA0000008014008B50121042000F06DF948203B
:100BB0008DF803004FF40040ADF8000003208DF8DD
:100BC000020069460148FFF7BDFE08BD000801406C
:100BD00038B50121042000F057F910208DF80300EA
:100BE000FF20ADF800000320054C8DF80200694697
:100BF0002046FFF7A7FEFF212046FFF7F8FE38BD8D
:100C0000000801404FF400610148FFF7E9BE000011
:100C1000000801404FF400510148FFF7E1BE000019
:100C2000000C0140FEE7704730B50F23C278017811
:100C30000125F2B1144A126801F1E02102F4E062E8
:100C4000C2F5E062120AC2F10404D3404278A24025
:100C500084781C401443220181F80024007800F0BD
:100C60001F018D404009800000F1E020C0F80051D4
:100C700030BD01F01F0085404809800000F1E020F0
:100C8000C0F8805130BD00000CED00E0024908437F
:100C900002490860704700000000FA050CED00E012
:100CA000F0B589B00121042000F0E2F8012108200C
:100CB00000F0EAF84020ADF810001824434E8DF8FB
:100CC000134003258DF8125004A93046FFF73AFE71
:100CD0008020ADF810008DF813408DF8125004A953
:100CE0003046FFF72FFEB015ADF810008DF8134019
:100CF0008DF8125004A93046FFF724FE7015ADF8A8
:100D000010008DF813408DF8125004A93046FFF7FB
:100D100019FE6320ADF818002320ADF8140000245C
:100D20002B4FADF81A40ADF8164005A9384600F033
:100D3000B3FB6025ADF800500126ADF80260ADF8B8
:100D40000640ADF808406946384600F08BFAADF829
:100D50000050ADF80260ADF80640ADF808406946B5
:100D6000384600F0C5FAADF80050ADF80260ADF8B5
:100D70000640ADF808406946384600F003FBADF880
:100D80000050ADF80260ADF80640ADF80840694685
:100D9000384600F03BFB0821384600F0A3FA082152
:100DA000384600F0E5FA0821384600F029FB082112
:100DB000384600F05DFB0121384600F03FFA012182
:100DC000384600F045FA09B0F0BD0000000C0140C3
:100DD0000008004010B50B4804880BA000F056FC3A
:100DE000104811490068B0FBF1F110A000F04EFC72
:100DF000214619A000F04AFCBDE810401BA000F0FD
:100E000045BC0000E0F7FF1F3D3D3D3D3D3D204915
:100E10006E666F726D6174696F6E203D3D3D3D3D44
:100E20003D0D0A000000002040420F0043505520B5
:100E30003A2053544D333246313033433854362CF4
:100E4000204672657175656E6379203A2025644D80
:100E5000487A0D0A00000000466C617368205369EF
:100E60007A653A202564204B420D0A000D0A0000E5
:100E7000044A0029D16901D0014300E08143D161D6
:100E80007047000000100240044A0029916901D017
:100E9000014300E08143916170470000001002406F
:100EA00030B5204A5168204B11F00C0103D00429C1
:100EB00001D0082901D0036012E05168536801F4A1
:100EC00070114FF0020413F4803F04EB914102D003
:100ED00053689B0301D5154B00E0134B5943016048
:100EE00051680F2303EA1111114B5C5C0168E1406A
:100EF00041605468072505EA14241C5D21FA04F4B6
:100F00008460546805EAD4241B5DD940C1605268EE
:100F1000032303EA9232064B1B1F9A5CB1FBF2F1EA
:100F2000016130BD0010024000127A0000093D004E
:100F3000180000204FF480510148FFF751BD000018
:100F4000000801404FF480510148FFF749BD0000FF
:100F5000000C014010B5FFF755FE012803D1FFF743
:100F6000E9FF012806D0FFF74DFE4FF4C8740128B1
:100F700006D008E00021BDE81040462001F0A3B8EB
:100F8000FFF7D8FF18B1FFF73DFE30B109E0214669
:100F9000BDE81040462001F025B8FFF7CBFF01283F
:100FA00011D0FFF72FFE002813D1FFF7C3FF002851
:100FB0000FD1204601F07AF8BDE810404FF461717E
:100FC000462001F04BB82146BDE81040462001F014
:100FD0001DB810BD10B5FFF71DFE10B9FFF7B2FF29
:100FE00020B1FFF717FE012806D008E00021BDE878
:100FF0001040462001F067B8FFF7A4FF18B1FFF7D3
:1010000009FE30B109E00021BDE81040462000F0A3
:10101000E9BFFFF797FF01280CD0FFF7FBFD012880
:101020000ED1FFF78FFF01280AD1BDE81040002044
:1010300001F03CB80021BDE81040462000F0E6BFBA
:1010400010BD000030B5012187B08803FFF71CFFF9
:1010500001210420FFF718FF18208DF813004FF42A
:101060000070ADF81000224D03248DF8124004A941
:101070002846FFF767FC48218DF813102815ADF8B6
:1010800010008DF8124004A92846FFF75BFC4FF4CE
:10109000E130009000200C21ADF80A10ADF80600F8
:1010A000144CADF80C00ADF80800ADF8040069462A
:1010B000204600F08BFA012240F22551204600F034
:1010C0006CFA4FF4A060FFF7E1FD25208DF81400C5
:1010D00001218DF817108DF815108DF8161005A840
:1010E000FFF7A2FD0121204600F046FA07B030BD0F
:1010F000000801400038014010B5064C014620466A
:1011000000F0BEFA8021204600F040FA0028F9D015
:1011100010BD0000003801400CB5002226480092A6
:101120000192016841F4803101604FF4A0630168CD
:1011300001F4003101910099491C0091019911B904
:1011400000999942F3D10168890333D501210191B6
:101150001A490A6842F010020A600A6822F0030283
:101160000A600A6842F002020A6041684160416810
:101170004160416841F480614160416821F47C1123
:101180004160416841F4E8114160016841F08071BB
:10119000016001688901FCD5416821F003014160CB
:1011A000416841F0020141604168C1F381010229B7
:1011B000FAD10CBD01920CBD00100240002002408B
:1011C00010B5BF2080F31188BFF34F8FBFF36F8F2F
:1011D00001F09AFA18B104494FF0805008600020DD
:1011E00080F3118810BD000004ED00E00F4810B539
:1011F000016841F00101016041680D4A1140416000
:1012000001680C4A11400160016821F480210160ED
:10121000416821F4FE0141604FF41F018160FFF736
:101220007BFF05494FF00060086010BD00100240D0
:101230000000FFF8FFFFF6FE08ED00E0002901883E
:1012400002D041F0800101E021F08001018070476F
:101250000029018802D041F0010101E021F00101E3
:101260000180704730B5028C22F001020284028CAA
:101270008388048B22F0020224F073050C882C432F
:101280000D8915434A882A43114DA8420BD0114DB0
:10129000A84208D0104DA84205D0104DA84202D057
:1012A0000F4DA8420DD122F008054A8923F440735E
:1012B0002A4322F004058A882A438D891D43CB895D
:1012C0002B4383800483C9888186028430BD00005B
:1012D000002C014000340140004001400044014026
:1012E00000480140028B22F008020A430283704743
:1012F00070B5028C22F010020284028C8388048B69
:101300000D8824F4E6464FF6FF7404EA05253543BC
:101310000E8922F0200204EA061616434A8804EADF
:1013200002123243104EB04202D0104EB04215D1DC
:1013300022F080064A8923F4406304EA0212324311
:1013400022F040068A8804EA021232438E8904EAB7
:1013500086061E43CB8904EA8303334383800583D7
:10136000C9880187028470BD002C0140003401400F
:10137000028B4FF6FF7322F4006203EA012111434E
:101380000183704770B5028C22F480720284028C53
:101390008388848B0D8824F0730425430E894FF6CF
:1013A000FF7422F4007204EA062616434A8804EA0F
:1013B00002223243104EB04202D0104EB04215D13C
:1013C00022F400664A8923F4405304EA022232439D
:1013D00022F480668A8804EA022232438E8904EA73
:1013E00006161E43CB8904EA0313334383808583A7
:1013F000C9888187028470BD002C014000340140FF
:10140000828B22F008020A438283704770B5028CF7
:1014100022F480520284058C8288838B0C8823F40A
:10142000E6464FF6FF7303EA0424344325F40056DE
:101430000D8903EA053535434E8803EA06362E4307
:10144000094DA84202D0094DA84205D122F4804599
:101450008A8903EA82122A4382808483C988A0F899
:101460004010068470BD0000002C01400034014093
:10147000828B4FF6FF7322F4006203EA01211143CD
:1014800081837047818670470187704781877047E5
:10149000A0F840107047000030B502881B4C1C4D6E
:1014A000A0420DD0A8420BD0B0F1804F08D0194B0C
:1014B000984205D0184B984202D0184B984203D15D
:1014C00022F070034A881A43154B984206D0154BF8
:1014D000984203D022F44073CA881A4302808A8853
:1014E00082850A880285A0420AD0A84208D00E4A06
:1014F000904205D00D4A904202D00D4A904201D14F
:10150000097A01860121818230BD0000002C014052
:10151000003401400004004000080040000C00407E
:101520000010004000140040004001400044014011
:101530000048014070B50B4C40F225552946204625
:1015400000F024F801280CD1204600F095F8064A56
:1015500029461070012050702046BDE8704000F010
:1015600005B870BD00380140490000200A0A012179
:101570009140C943018070470029818902D041F41C
:10158000005101E021F400518181704702460020A2
:1015900012880A4200D00120704710B5C1F34213EF
:1015A00001F01F040121A140012B07D0022B07D01D
:1015B0001430002A026805D00A4304E00C30F8E732
:1015C0001030F6E78A43026010BD000030B50446D3
:1015D000008A85B00D464CF6FF710840E98801434A
:1015E0002182A0894EF6F3110840A9882A89114367
:1015F0006A8902431143A181A08A4FF6FF41084046
:10160000A9890143A1826846FFF74AFC1948844230
:1016100001D1039800E00298A189090400EBC00100
:1016200001EB0010296801D5490000E08900B0FBFA
:10163000F1F06422B0FBF2F109010B096FF018051B
:101640006B4300EB8300A3891D044FF0320306D5E2
:1016500003EBC000B0FBF2F000F0070005E003EB85
:101660000010B0FBF2F000F00F000843208105B03D
:1016700030BD0000003801408088C0F3080070478A
:10168000C1F3080181807047FEE700000FB4054BED
:1016900010B503A9044A029800F0DAF810BC5DF80E
:1016A00014FB00007F1F0008B400002002E008C8FF
:1016B000121F08C1002AFAD170477047002001E0CC
:1016C00001C1121F002AFBD1704700002DE9FF5F06
:1016D00082B00021DDE90430020DDDF840B00343A3
:1016E00018D044F61050A2F2FF324243151411985C
:1016F00001281FD0A5EB0B00401C5FEA000A4FF049
:1017000000064E4FDFF83891B046504615D5CAF165
:10171000000413E0119801244AA3012801D16FEAC3
:101720000B010298119AC0E90031C0E9024206B0EB
:10173000BDE8F09FCBF10000DFE704460021404AFE
:10174000491842EB0450CDE9001012E0E00707D041
:1017500032463B4640464946FEF730FE80468946C3
:1017600032463B4610461946FEF728FE06460F460F
:101770006410002CEAD1DDE90401DDE90023BAF1AF
:10178000000F06DAFEF71AFE42464B46FEF716FE3B
:1017900005E0FEF785FE42464B46FEF781FE044615
:1017A0000E460022284BFEF703FF03D84FF0FF3010
:1017B000014607E00022254B20463146FEF757FD43
:1017C000FEF7DDFE102409E0002C0ADB0A220023CC
:1017D000FEF71CFD039B30321A55641E50EA0102CD
:1017E000F2D1641C039AC4F111031444119A012A22
:1017F00003D0012208430DD10AE0084304D00020A1
:101800004FF0110B119072E7A3EB0B056D1E0DE06D
:101810005B4504DD4FF0000205F1010504E003DA49
:101820004FF00002A5F10105002AECD002981199B1
:10183000C0E90231C0E9004579E70000000014402A
:101840000000F03F300000000000F0430000E03FE7
:101850002DE9FF4F95B09B468946064600250FE2CD
:10186000252877D100242746F84A0121059400E075
:10187000044316F8013F203B01FA03F01042F7D170
:1018800030782A2811D06FF02F033078A0F1300281
:10189000092A16D8059A44F0020402EB820203EBEF
:1018A00042021044761C0590EFE759F8042B05928C
:1018B000002A03DA504244F40054059044F0020434
:1018C000761C30782E2816D116F8010F44F0040447
:1018D0002A280DD06FF02F023078A0F13003092BA9
:1018E00009D807EB870302EB4303C718761CF3E71D
:1018F00059F8047B761C30786C280FD006DC4C2815
:1019000017D068280DD06A2814D104E0742810D0AC
:101910007A280FD10DE044F400140AE044F4801456
:1019200001E044F440147278824202D104F580143C
:10193000761C761C307866280BD013DC582877D0BC
:1019400009DC002875D04528F6D04628F4D0472871
:101950001AD19DE118E0632835D0642879D0652834
:1019600012D195E1702873D008DC6728F1D069287E
:101970006FD06E280DD06F2806D1B5E073282CD01B
:10198000752875D0782874D05A46179990476D1CE1
:1019900075E1C4F30250022809D003280DD0D9F80C
:1019A000001004280DD00D6009F1040967E1D9F891
:1019B0000010EA17C1E90052F6E7D9F800100D80CF
:1019C000F2E70D70F0E719F8041B8DF80010002005
:1019D0008DF80100EA46012003E059F804AB4FF00E
:1019E000FF3061074FF0000102D40DE008F1010162
:1019F0008846B9420FDA8045F8DB1AF8081000294A
:101A0000F4D108E008F1010188468142FADB1AF8B6
:101A100008100029F6D105985B46A0EB080721467F
:101A20003846179A00F094FA284400EB080507E0BE
:101A30004DE029E10DE01AF8010B5A46179990473D
:101A4000B8F10108F7D25B4621463846179A13E1F0
:101A500042E00A220092C4F302524FF0000A022A26
:101A600008D059F804CB032A4FEAEC710AD00DE0F4
:101A700029E02AE009F1070121F00702F2E802C19A
:101A8000914609E00FFA8CFC4FEAEC71042A03D16D
:101A90004FFA8CFC4FEAEC71002907DA0A46002164
:101AA000DCF1000C61EB02012D2202E0220504D5DD
:101AB0002B228DF80420012203E0E20701D020222E
:101AC000F7E7904659E00A2102E010220DE01021CC
:101AD0004FF0000A00910BE010224FF0000A44F092
:101AE00004040827009203E008224FF0000A009245
:101AF000C4F30252022A05D059F804CB0021032A6C
:101B000008D009E009F1070121F00702F2E802C15B
:101B1000914605E01FFA8CFC042A01D10CF0FF0C61
:101B20004FF00008220728D5702806D0009B83F0CC
:101B3000100353EA0A0305D00EE040228DF804207A
:101B4000012208E05CEA010206D030228DF8042070
:101B50008DF8050002229046009B83F0080353EAAB
:101B60000A030AD15CEA010201D1620705D53022DD
:101B70008DF804204FF001087F1E582804D034A0AF
:101B800003900EA802900DE036A0F9E75346604698
:101B9000009AFEF73BFB84460398825C0298401E45
:101BA000029002705CEA0100F0D1029806A9081ABE
:101BB00000F1200A600702D524F4803400E00127F8
:101BC000574502DDA7EB0A0000E0002000EB0A0108
:101BD000009005984144401A0590E00306D45B4606
:101BE0002146179A059800F0B3F90544002706E04E
:101BF00001A85A46C05D179990476D1C7F1C474548
:101C0000F6DBE0030CD55B462146179A059800F0F9
:101C10009FF9054404E030205A46179990476D1CFF
:101C20000099481E00900029F5DC08E0029802990E
:101C30005A460078491C0291179990476D1CBAF1D9
:101C40000001AAF1010AF1DC65E1000009280100A8
:101C50003031323334353637383961626364656622
:101C600000000000303132333435363738394142E4
:101C7000434445460000000000F058F90544761C36
:101C8000307800287FF4ECAD19B02846BDE8F08F1D
:101C9000620700D4062709F1070222F0070CFCE8CE
:101CA0000223E14603F000485FEA080C02D00FF27D
:101CB000702C0DE05FEA045C02D50FF2682C07E09F
:101CC0005FEAC47C02D00FF2602C01E0AFF2700C2E
:101CD0004FF0FF3823F00043CDF850C065280CD0FA
:101CE00006DC452809D046281DD047283DD13DE0D7
:101CF000662818D067287ED138E00021112F01DB3B
:101D0000112000E0781CCDE9000106A90EA8FFF71C
:101D1000DDFCDDE90F010E9A03910021009207F12D
:101D2000010A04914DE04FF000400097CDE9011009
:101D300006A90EA8FFF7CAFCDDE90F0203920E9B6D
:101D400011990022DDF80CA00093049211B9791CBE
:101D500000EB010AB7EB0A0004D4C0F1FF3007F131
:101D6000010A0490AAEB0700019044E0012F00DA79
:101D700001270021112F01DD112000E03846CDE9B7
:101D8000000106A90EA8FFF7A1FCDDE90F010E9ADC
:101D90000391002104910092BA4621070CD40399C3
:101DA000514500DA8A46BAF1010F05DD009AAAF121
:101DB0000101515C302908D0B84202DA10F1040F59
:101DC00006DA0121CDE9011015E0AAF10101E9E7E8
:101DD000002805DC049901440491AAEB000102E00B
:101DE000411C514500DD8A460499401A401C01906F
:101DF0004FF000400290200704D40198504501DBC9
:101E0000CDF8048000208DF84F0002980DF14F07A7
:101E1000B0F1004F25D02B200E9002984FF0020811
:101E200000280CDA404202902D200E9007E00A2193
:101E30000298FEF7D5F93031029007F8011DB8F18C
:101E40000001A8F10108F2DC02980028EFD1791E08
:101E50000E980870307800F0200040F0450007F838
:101E6000020D12A8C01B00F107081498007800B1F9
:101E7000012000EB0A01019801EBE0710598414453
:101E8000401A401E0590E00306D45B462146179A8F
:101E9000059800F05DF805441498007818B15A468A
:101EA000179990476D1CE00324D55B462146179A8D
:101EB000059800F04DF805441CE00498002807DB65
:101EC000DDE90301884203DD0098405C179901E0D9
:101ED000179930205A469047049805F10105401C97
:101EE00004900198401E019004D12E205A46179963
:101EF00090476D1CBAF10001AAF1010ADDDC05E092
:101F000017F8010B5A46179990476D1CB8F100015C
:101F1000A8F10108F4DC5B462146179A0598ABE668
:101F20002D0000002B000000200000002DE9F041F2
:101F3000044600251E461746880404D405E03946A9
:101F40002020B0476D1C641EF9D52846BDE8F081FD
:101F50002DE9F041044600251E469046C80301D5F0
:101F6000302700E02027880404D505E041463846A4
:101F7000B0476D1C641EF9D52846BDE8F08110B548
:101F80000446C0B2FFF7B8F8204610BD1CB54FF4A8
:101F90004070FEF77BFEFEF705FEFEF749FDFEF7FB
:101FA000CFFDFEF779FDFEF713FEFFF74BF800F0CB
:101FB00051FAFEF70FFF06490220CDE900010202A7
:101FC000002304A1064800F06DFB00F0EBFAFEE7E9
:101FD000500000206672656574657374000000002F
:101FE0008D24000810B50C46642801DD642002E051
:101FF000002800DA00200023C2B21946184600F07B
:102000002BFA2046BDE81040FEF7FFBB10B50C468A
:10201000642801DD642002E0002800DA00200023AB
:10202000C0B21A46194600F017FA2046BDE8104023
:10203000FEF7EBBB10B50C46642801DD642002E01E
:10204000002800DA0020C2B2C1B20023184600F016
:1020500003FA2046BDE81040FEF7D7BB10B50C468A
:10206000642801DD642002E0002800DA0020C3B209
:102070000022C0B2114600F0EFF92046BDE8104042
:10208000FEF7C3BB10B50C46642801DD642002E0F6
:10209000002800DA0020C3B2C1B20022104600F0CE
:1020A000DBF92046BDE81040FEF7AFBB10B50023BA
:1020B00004461A461946184600F0CEF92046BDE8F7
:1020C0001040FEF7A2BB10B50C46642801DD642069
:1020D00002E0002800DA0020C2B20023C0B2194694
:1020E00000F0BAF92046BDE81040FEF78EBB0000B4
:1020F0002DE9F041044600F00FFA364EB068401C5E
:10210000B0603068344F10B1706940B32DE0346076
:10211000B068012829D1002505EB850007EB800078
:1021200000F0ECF96D1C052DF6D32B48643000F05F
:10213000E5F92948783000F0E1F927488C3000F0C3
:10214000DDF92548A03000F0D9F92348B43000F07B
:10215000D5F92148643070631430B06305E030680D
:10216000E16AC06A884200D83460706A0121401C6C
:102170007062E06A326981401143316100EB800096
:1021800007EB80004068A0608168E1608268211DE3
:1021900051608160E06A00EB800007EB80016161C3
:1021A00057F82010491C47F8201000F0C3F9706957
:1021B00000280CD03068E16AC06A884207D207491B
:1021C0004FF080500860BFF34F8FBFF36F8FBDE8B3
:1021D000F081000054000020B800002004ED00E071
:1021E00070B50C4D0C4E11E000F096F9F068C46823
:1021F000201D00F071F9A868401EA8606868401EA4
:10220000686000F097F9204600F008F86868002838
:10221000EAD170BD540000205801002010B50446DA
:10222000006B00F091F92046BDE8104000F08CB939
:102230000E484FF48841420706D0C01D0B4920F0DC
:102240000700411AC1F58841094B00220144C3E946
:1022500000020839143B21F0070119604A600A6046
:102260000A1AC0E900129A605A6070478001002083
:10227000AC000020074E4FF08054074DFFF7B0FF31
:1022800030680128FAD92C60BFF34F8FBFF36F8FEE
:10229000F4E70000B800002004ED00E02DE9F0476D
:1022A0009946DDE9096480466FF00303206B03EB78
:1022B0008202089D104420F0070761B10020231816
:1022C0000A5C83F834200A5C12B1401C1028F6D353
:1022D000002084F84300052D00D30425201DE5626D
:1022E00000F017F904F1180000F013F92461C5F1AA
:1022F00005006462A0614A464146384600F098F8FD
:102300002060002E00D03460BDE8F08730B5114960
:1023100000E011460A688242FBD34B685C18844295
:1023200003D1406818444860084643681C1894422A
:1023300009D1084C143C2468A24209D052681A44BE
:1023400042600A6812680260814200D0086030BDB5
:102350000460F9E7AC0000200548416B096821B131
:10236000416BC9680968816270474FF0FF31FAE735
:1023700054000020BF2080F31188BFF34F8FBFF3BC
:102380006F8FFEE72DE9F04104004FF000050FD0FC
:1023900014F1090F0BD80834600709D004F00700C6
:1023A000C0F10800C1438C4201D8044400E000247D
:1023B00000F032F91D4E306808B9FFF739FF002CE4
:1023C0002FDD73689C422CD81849143108460068E8
:1023D00001E0014610464268A24202D20268002A89
:1023E000F7D1326890421CD00D6802680A604268DA
:1023F0000835171B102F05D90219576044600C6867
:1024000014600A604268991A7160B368994200D2F8
:10241000B16042F00041416000210160F068401C61
:10242000F06000F0FBF92846BDE8F081980000203C
:1024300010B5031F4FF080741C601B1F21F00101B9
:102440001960191F024B0B60143940380A6010BD27
:1024500075230008FEF724BC2DE9F0410D460A4C17
:1024600001461E4617462046FFF70CF8294620462F
:10247000FFF70AF839462046FFF708F831462046AC
:10248000BDE8F041FFF704B800080040114C0125F9
:10249000FEF76CFB0128207807D001280FD0022816
:1024A00012D0032813D02570F2E7401C207020784A
:1024B000032800D925702078FEF7C2F9E8E7FEF777
:1024C00089FDFEF7E1F9E3E7FEF744FDE0E7FEF7FB
:1024D000F9FADDE74C000020D0E9013201699A6089
:1024E000D0E901235A604A68824201D182684A6079
:1024F000002202610868401E0860704700F1080170
:102500004FF0FF32C0E90112C1600161002101609A
:102510007047002101617047BF2080F31188BFF32D
:102520004F8FBFF36F8F02480168491C01607047ED
:102530009400002003490868401E086001D180F320
:10254000118870479400002070B500281BD0A0F1BE
:1025500008046068002816DA2168002913D120F0E9
:102560000040606000F058F8074D606869680844F2
:1025700068602046FFF7CAFE2869401C2861BDE854
:10258000704000F04BB970BD980000204FF0E02083
:1025900000210161816102494161072101617047A8
:1025A0003F19010070B586B0002002AA16A1095C8F
:1025B000115411B1401C1028F8DB0024144E25469C
:1025C00006EB8401CDE9005112480023802202A9C4
:1025D00000F068F810B1641C012CF1DB0C4C3C3CA1
:1025E00001280ED1BF2080F31188BFF34F8FBFF3B6
:1025F0006F8F4FF0FF30A06201206061E56000F056
:1026000039F8E06A06B070BD49444C45000000004E
:1026100090000020752200080248016B491C0163EC
:102620007047000054000020104A116B02F11C009A
:1026300011B10121016070470021016010690C494E
:10264000B0FA80F0C0F11F0000EB800001EB8000C9
:1026500000F10803416849684160994201D1C168AD
:102660004160C86810601068704700005400002086
:10267000B8000020094810B5016841F47F010160ED
:10268000016841F07F410160FFF780FF04490020AD
:102690000860FDF747FD002010BD000020ED00E0C0
:1026A000940000202DE9FF5F8346DDE90E87164682
:1026B0008A4699469000FFF765FE050018D04C2029
:1026C000FFF760FE04000FD04C21FDF77EFD25636F
:1026D0000021CDE90241CDE900874B463246514603
:1026E0005846FFF7DBFD04E02846FFF72DFF00E02A
:1026F0000024200005D0FFF7FBFC012004B0BDE85A
:10270000F09F4FF0FF30F9E72DE9F041414E0025F1
:10271000306B28B1B069401CB0612846BDE8F0813B
:10272000F468641CF46008D1706BB16B7163B063C2
:10273000306A401C3062FFF70FFEB06ADFF8D8E065
:1027400084420BD34FF0000C706B0068B0B1706B1B
:10275000C068C1684868844213D2B0623068C06AF9
:1027600000EB80005EF82000012800D901252948EF
:102770001C3000680028D0D00125CEE74FF0FF3094
:10278000EBE7D1E9023248699A60D1E902235A6045
:1027900043680A1D934201D1CB684360C1F814C05D
:1027A00003685B1E0360886A88B1D1E907379F60C0
:1027B000D1E907377B60476801F118039F4201D1D7
:1027C0000B6A4360C1F828C003685B1E0360C86AD7
:1027D0000123376983403B43336100EB80000EEBFC
:1027E0008000406888608368CB6083685A6082603C
:1027F000C86A00EB80000EEB80024A615EF8202080
:10280000521C4EF82020C86A3168C96A88429BD998
:10281000012599E754000020B80000202DE9F05F61
:102820000024A246FFF778FE474F0025386B401E74
:102830003863386B00287CD1B8684449A1464FF012
:10284000010807F11C06002878D08B46DBF8001041
:10285000E9B3DBF80C00C468D4E90721A06A9160F1
:10286000D4E907125160426804F118018A4201D18B
:10287000216A4160C4F8289001684A46491E0160F7
:10288000D4E9023160699960D4E902135960436860
:10289000211D8B4201D1E3684360626102684346B7
:1028A000521E0260E06AD7F810C008FA00F242EA4D
:1028B0000C023A61254A00EB80008C3A02EB800062
:1028C0004068A060D0F808C0C4F80CC000E017E071
:1028D000D0F808C0CCF804108160E06A00EB8000FA
:1028E00002EB8001616152F82010491C42F820106F
:1028F000E06A3968C96A8842A8D946F82530A5E750
:102900000CB1FFF729FDBC6944B1FFF7FDFE08B12A
:1029100046F82580641EF8D1C7F8189056F82500AF
:1029200038B138684FF0010A09494FF0805008600B
:1029300000E003E0BFF34F8FBFF36F8FFFF7FAFDA7
:102940005046BDE8F09F00005400002044010020E4
:1029500004ED00E07429000800000020B800000029
:10296000AC1600082C2A0008B8000020C848000057
:10297000BC16000800A24A0400000000000000008D
:10298000010203040607080902040608000000000B
:10299000010203040102030406070809C0F9A4B0F8
:1029A000999282F880900100020004000800100053
:1029B0002000400080000000000000000000000037
:1029C0000100000000000000000000000000000006
:1029D00000000000000000000000000000000000F7
:1029E00000000000000000000000000000000000E7
:1029F00000000000040000000000000000000000D3
:102A00000000000000000000AAAAAAAA000000001E
:102A100000000000000000000000000000000000B6
:0C2A2000000000000000000000000000AA
:04000005080000ED02
:00000001FF
